{
    "contractName": "Identity",
    "abi": [
        {
            "inputs": [],
            "stateMutability": "nonpayable",
            "type": "constructor"
        },
        {
            "inputs": [],
            "name": "getAge",
            "outputs": [
                {
                    "internalType": "uint256",
                    "name": "",
                    "type": "uint256"
                }
            ],
            "stateMutability": "view",
            "type": "function"
        },
        {
            "inputs": [],
            "name": "getName",
            "outputs": [
                {
                    "internalType": "string",
                    "name": "",
                    "type": "string"
                }
            ],
            "stateMutability": "view",
            "type": "function"
        }
    ],
    "bytecode": "608060405234801561001057600080fd5b50604080518082019091526004808252635261766960e01b602090920191825261003c91600091610047565b50601160015561011b565b828054610053906100e0565b90600052602060002090601f01602090048101928261007557600085556100bb565b82601f1061008e57805160ff19168380011785556100bb565b828001600101855582156100bb579182015b828111156100bb5782518255916020019190600101906100a0565b506100c79291506100cb565b5090565b5b808211156100c757600081556001016100cc565b600181811c908216806100f457607f821691505b6020821081141561011557634e487b7160e01b600052602260045260246000fd5b50919050565b6101c28061012a6000396000f3fe608060405234801561001057600080fd5b50600436106100365760003560e01c806317d7de7c1461003b578063967e6e6514610059575b600080fd5b61004361006a565b60405161005091906100fc565b60405180910390f35b600154604051908152602001610050565b60606000805461007990610151565b80601f01602080910402602001604051908101604052809291908181526020018280546100a590610151565b80156100f25780601f106100c7576101008083540402835291602001916100f2565b820191906000526020600020905b8154815290600101906020018083116100d557829003601f168201915b5050505050905090565b600060208083528351808285015260005b818110156101295785810183015185820160400152820161010d565b8181111561013b576000604083870101525b50601f01601f1916929092016040019392505050565b600181811c9082168061016557607f821691505b6020821081141561018657634e487b7160e01b600052602260045260246000fd5b5091905056fea2646970667358221220c540297c875ff274ce9f66fc7243ff8ce7bb29f87fd9e60be77d1c8677b7beec64736f6c634300080c0033",
    "sourcePath": "e:/Programming/Blockchain/Solidity/Class/10_Solidity_sample_Program/identity.sol",
    "compiler": {
        "name": "solc",
        "version": "0.8.12+commit.f00d7308"
    },
    "functionHashes": {
        "getAge()": "967e6e65",
        "getName()": "17d7de7c"
    },
    "gasEstimates": {
        "creation": {
            "codeDepositCost": "90000",
            "executionCost": "infinite",
            "totalCost": "infinite"
        },
        "external": {
            "getAge()": "2280",
            "getName()": "infinite"
        }
    }
}